{
  "_format": "hh-sol-artifact-1",
  "contractName": "DecentralizedID",
  "sourceName": "contracts/DID.sol",
  "abi": [
    {
      "anonymous": false,
      "inputs": [
        {
          "indexed": true,
          "internalType": "address",
          "name": "owner",
          "type": "address"
        },
        {
          "indexed": true,
          "internalType": "address",
          "name": "authorized",
          "type": "address"
        }
      ],
      "name": "DIDAuthorized",
      "type": "event"
    },
    {
      "anonymous": false,
      "inputs": [
        {
          "indexed": true,
          "internalType": "address",
          "name": "user",
          "type": "address"
        }
      ],
      "name": "DIDEmailVerified",
      "type": "event"
    },
    {
      "anonymous": false,
      "inputs": [
        {
          "indexed": true,
          "internalType": "address",
          "name": "user",
          "type": "address"
        }
      ],
      "name": "DIDExpired",
      "type": "event"
    },
    {
      "anonymous": false,
      "inputs": [
        {
          "indexed": true,
          "internalType": "address",
          "name": "user",
          "type": "address"
        },
        {
          "indexed": false,
          "internalType": "string",
          "name": "username",
          "type": "string"
        },
        {
          "indexed": false,
          "internalType": "string",
          "name": "avatar",
          "type": "string"
        },
        {
          "indexed": false,
          "internalType": "string",
          "name": "email",
          "type": "string"
        }
      ],
      "name": "DIDProfileUpdated",
      "type": "event"
    },
    {
      "anonymous": false,
      "inputs": [
        {
          "indexed": true,
          "internalType": "address",
          "name": "user",
          "type": "address"
        },
        {
          "indexed": false,
          "internalType": "string",
          "name": "did",
          "type": "string"
        }
      ],
      "name": "DIDRegistered",
      "type": "event"
    },
    {
      "anonymous": false,
      "inputs": [
        {
          "indexed": true,
          "internalType": "address",
          "name": "user",
          "type": "address"
        }
      ],
      "name": "DIDRevoked",
      "type": "event"
    },
    {
      "anonymous": false,
      "inputs": [
        {
          "indexed": true,
          "internalType": "address",
          "name": "user",
          "type": "address"
        },
        {
          "indexed": false,
          "internalType": "string",
          "name": "account",
          "type": "string"
        }
      ],
      "name": "DIDSocialAccountAdded",
      "type": "event"
    },
    {
      "anonymous": false,
      "inputs": [
        {
          "indexed": true,
          "internalType": "address",
          "name": "user",
          "type": "address"
        },
        {
          "indexed": false,
          "internalType": "string",
          "name": "tag",
          "type": "string"
        }
      ],
      "name": "DIDTagAdded",
      "type": "event"
    },
    {
      "anonymous": false,
      "inputs": [
        {
          "indexed": true,
          "internalType": "address",
          "name": "owner",
          "type": "address"
        },
        {
          "indexed": true,
          "internalType": "address",
          "name": "unauthorized",
          "type": "address"
        }
      ],
      "name": "DIDUnauthorized",
      "type": "event"
    },
    {
      "anonymous": false,
      "inputs": [
        {
          "indexed": true,
          "internalType": "address",
          "name": "user",
          "type": "address"
        },
        {
          "indexed": false,
          "internalType": "string",
          "name": "newDid",
          "type": "string"
        }
      ],
      "name": "DIDUpdated",
      "type": "event"
    },
    {
      "inputs": [],
      "name": "DEFAULT_EXPIRY_DAYS",
      "outputs": [
        {
          "internalType": "uint256",
          "name": "",
          "type": "uint256"
        }
      ],
      "stateMutability": "view",
      "type": "function"
    },
    {
      "inputs": [
        {
          "internalType": "string",
          "name": "_account",
          "type": "string"
        }
      ],
      "name": "addSocialAccount",
      "outputs": [],
      "stateMutability": "nonpayable",
      "type": "function"
    },
    {
      "inputs": [
        {
          "internalType": "string",
          "name": "_tag",
          "type": "string"
        }
      ],
      "name": "addTag",
      "outputs": [],
      "stateMutability": "nonpayable",
      "type": "function"
    },
    {
      "inputs": [
        {
          "internalType": "address",
          "name": "_authorized",
          "type": "address"
        }
      ],
      "name": "authorizeDID",
      "outputs": [],
      "stateMutability": "nonpayable",
      "type": "function"
    },
    {
      "inputs": [
        {
          "internalType": "address",
          "name": "_user",
          "type": "address"
        }
      ],
      "name": "checkExpiry",
      "outputs": [],
      "stateMutability": "nonpayable",
      "type": "function"
    },
    {
      "inputs": [
        {
          "internalType": "address",
          "name": "",
          "type": "address"
        },
        {
          "internalType": "uint256",
          "name": "",
          "type": "uint256"
        }
      ],
      "name": "didHistory",
      "outputs": [
        {
          "internalType": "string",
          "name": "did",
          "type": "string"
        },
        {
          "internalType": "uint256",
          "name": "timestamp",
          "type": "uint256"
        },
        {
          "internalType": "string",
          "name": "action",
          "type": "string"
        }
      ],
      "stateMutability": "view",
      "type": "function"
    },
    {
      "inputs": [
        {
          "internalType": "address",
          "name": "_user",
          "type": "address"
        }
      ],
      "name": "getDID",
      "outputs": [
        {
          "internalType": "string",
          "name": "",
          "type": "string"
        }
      ],
      "stateMutability": "view",
      "type": "function"
    },
    {
      "inputs": [
        {
          "internalType": "address",
          "name": "_user",
          "type": "address"
        }
      ],
      "name": "getDidHistory",
      "outputs": [
        {
          "components": [
            {
              "internalType": "string",
              "name": "did",
              "type": "string"
            },
            {
              "internalType": "uint256",
              "name": "timestamp",
              "type": "uint256"
            },
            {
              "internalType": "string",
              "name": "action",
              "type": "string"
            }
          ],
          "internalType": "struct DecentralizedID.HistoryRecord[]",
          "name": "",
          "type": "tuple[]"
        }
      ],
      "stateMutability": "view",
      "type": "function"
    },
    {
      "inputs": [
        {
          "internalType": "address",
          "name": "_user",
          "type": "address"
        }
      ],
      "name": "getProfile",
      "outputs": [
        {
          "internalType": "string",
          "name": "did",
          "type": "string"
        },
        {
          "internalType": "string",
          "name": "username",
          "type": "string"
        },
        {
          "internalType": "string",
          "name": "avatar",
          "type": "string"
        },
        {
          "internalType": "string[]",
          "name": "tags",
          "type": "string[]"
        },
        {
          "internalType": "string",
          "name": "email",
          "type": "string"
        },
        {
          "internalType": "bool",
          "name": "emailVerified",
          "type": "bool"
        },
        {
          "internalType": "string[]",
          "name": "socialAccounts",
          "type": "string[]"
        }
      ],
      "stateMutability": "view",
      "type": "function"
    },
    {
      "inputs": [
        {
          "internalType": "address",
          "name": "",
          "type": "address"
        }
      ],
      "name": "identities",
      "outputs": [
        {
          "internalType": "string",
          "name": "did",
          "type": "string"
        },
        {
          "internalType": "uint256",
          "name": "createdAt",
          "type": "uint256"
        },
        {
          "internalType": "uint256",
          "name": "expiresAt",
          "type": "uint256"
        },
        {
          "internalType": "bool",
          "name": "isActive",
          "type": "bool"
        },
        {
          "internalType": "string",
          "name": "username",
          "type": "string"
        },
        {
          "internalType": "string",
          "name": "avatar",
          "type": "string"
        },
        {
          "internalType": "string",
          "name": "email",
          "type": "string"
        },
        {
          "internalType": "bool",
          "name": "emailVerified",
          "type": "bool"
        }
      ],
      "stateMutability": "view",
      "type": "function"
    },
    {
      "inputs": [
        {
          "internalType": "address",
          "name": "_owner",
          "type": "address"
        },
        {
          "internalType": "address",
          "name": "_user",
          "type": "address"
        }
      ],
      "name": "isAuthorized",
      "outputs": [
        {
          "internalType": "bool",
          "name": "",
          "type": "bool"
        }
      ],
      "stateMutability": "view",
      "type": "function"
    },
    {
      "inputs": [
        {
          "internalType": "address",
          "name": "_user",
          "type": "address"
        }
      ],
      "name": "isRegistered",
      "outputs": [
        {
          "internalType": "bool",
          "name": "",
          "type": "bool"
        }
      ],
      "stateMutability": "view",
      "type": "function"
    },
    {
      "inputs": [
        {
          "internalType": "string",
          "name": "_did",
          "type": "string"
        }
      ],
      "name": "registerDID",
      "outputs": [],
      "stateMutability": "nonpayable",
      "type": "function"
    },
    {
      "inputs": [],
      "name": "revokeDID",
      "outputs": [],
      "stateMutability": "nonpayable",
      "type": "function"
    },
    {
      "inputs": [
        {
          "internalType": "address",
          "name": "_unauthorized",
          "type": "address"
        }
      ],
      "name": "unauthorizeDID",
      "outputs": [],
      "stateMutability": "nonpayable",
      "type": "function"
    },
    {
      "inputs": [
        {
          "internalType": "string",
          "name": "_newDid",
          "type": "string"
        }
      ],
      "name": "updateDID",
      "outputs": [],
      "stateMutability": "nonpayable",
      "type": "function"
    },
    {
      "inputs": [
        {
          "internalType": "string",
          "name": "_email",
          "type": "string"
        }
      ],
      "name": "updateEmail",
      "outputs": [],
      "stateMutability": "nonpayable",
      "type": "function"
    },
    {
      "inputs": [
        {
          "internalType": "string",
          "name": "_username",
          "type": "string"
        },
        {
          "internalType": "string",
          "name": "_avatar",
          "type": "string"
        }
      ],
      "name": "updateProfile",
      "outputs": [],
      "stateMutability": "nonpayable",
      "type": "function"
    },
    {
      "inputs": [],
      "name": "verifyEmail",
      "outputs": [],
      "stateMutability": "nonpayable",
      "type": "function"
    }
  ],
  "bytecode": "0x608060405234801561001057600080fd5b50613e82806100206000396000f3fe608060405234801561001057600080fd5b50600436106101215760003560e01c8063a497c779116100ad578063de0cc45b11610071578063de0cc45b1461030a578063e0853cfd14610326578063f06099af14610330578063f64e30b01461034c578063f653b81e1461037c57610121565b8063a497c77914610268578063c3c5a54714610284578063c9d3cc6a146102b4578063cd1a06b0146102d0578063daebebc2146102ec57610121565b8063399e00b8116100f4578063399e00b8146101c4578063570810e2146101e057806365e4ad9e146101fc57806374022a891461022c5780639790874c1461025e57610121565b8063013a3160146101265780630f53a4701461014257806314c9583214610178578063240ba58114610194575b600080fd5b610140600480360381019061013b9190612c49565b6103b3565b005b61015c60048036038101906101579190612c49565b610605565b60405161016f9796959493929190612e2d565b60405180910390f35b610192600480360381019061018d9190612ffb565b610cde565b005b6101ae60048036038101906101a99190612c49565b61104a565b6040516101bb9190613176565b60405180910390f35b6101de60048036038101906101d99190612c49565b611215565b005b6101fa60048036038101906101f59190612ffb565b611467565b005b61021660048036038101906102119190613198565b611710565b60405161022391906131d8565b60405180910390f35b6102466004803603810190610241919061321f565b6117a7565b6040516102559392919061326e565b60405180910390f35b6102666118fe565b005b610282600480360381019061027d9190612c49565b611a6e565b005b61029e60048036038101906102999190612c49565b611bf2565b6040516102ab91906131d8565b60405180910390f35b6102ce60048036038101906102c991906132b3565b611c4c565b005b6102ea60048036038101906102e59190612ffb565b611ea3565b005b6102f461203e565b604051610301919061332b565b60405180910390f35b610324600480360381019061031f9190612ffb565b612044565b005b61032e61222a565b005b61034a60048036038101906103459190612ffb565b6123eb565b005b61036660048036038101906103619190612c49565b612642565b6040516103739190613346565b60405180910390f35b61039660048036038101906103919190612c49565b6127cd565b6040516103aa989796959493929190613368565b60405180910390f35b6000600160003373ffffffffffffffffffffffffffffffffffffffff1673ffffffffffffffffffffffffffffffffffffffff168152602001908152602001600020600001805461040290613431565b905011610444576040517f08c379a000000000000000000000000000000000000000000000000000000000815260040161043b906134ae565b60405180910390fd5b600160003373ffffffffffffffffffffffffffffffffffffffff1673ffffffffffffffffffffffffffffffffffffffff16815260200190815260200160002060040160008273ffffffffffffffffffffffffffffffffffffffff1673ffffffffffffffffffffffffffffffffffffffff16815260200190815260200160002060009054906101000a900460ff1615610511576040517f08c379a00000000000000000000000000000000000000000000000000000000081526004016105089061351a565b60405180910390fd5b60018060003373ffffffffffffffffffffffffffffffffffffffff1673ffffffffffffffffffffffffffffffffffffffff16815260200190815260200160002060040160008373ffffffffffffffffffffffffffffffffffffffff1673ffffffffffffffffffffffffffffffffffffffff16815260200190815260200160002060006101000a81548160ff0219169083151502179055508073ffffffffffffffffffffffffffffffffffffffff163373ffffffffffffffffffffffffffffffffffffffff167fa8d209ffe79d1383e7e0c2396a8c577042581f7c62f6b81f896a1376e0aa826f60405160405180910390a350565b6060806060806060600060608773ffffffffffffffffffffffffffffffffffffffff163373ffffffffffffffffffffffffffffffffffffffff1614806106d45750600160008973ffffffffffffffffffffffffffffffffffffffff1673ffffffffffffffffffffffffffffffffffffffff16815260200190815260200160002060040160003373ffffffffffffffffffffffffffffffffffffffff1673ffffffffffffffffffffffffffffffffffffffff16815260200190815260200160002060009054906101000a900460ff165b610713576040517f08c379a000000000000000000000000000000000000000000000000000000000815260040161070a90613586565b60405180910390fd5b600160008973ffffffffffffffffffffffffffffffffffffffff1673ffffffffffffffffffffffffffffffffffffffff168152602001908152602001600020600001600160008a73ffffffffffffffffffffffffffffffffffffffff1673ffffffffffffffffffffffffffffffffffffffff168152602001908152602001600020600501600160008b73ffffffffffffffffffffffffffffffffffffffff1673ffffffffffffffffffffffffffffffffffffffff168152602001908152602001600020600601600160008c73ffffffffffffffffffffffffffffffffffffffff1673ffffffffffffffffffffffffffffffffffffffff168152602001908152602001600020600701600160008d73ffffffffffffffffffffffffffffffffffffffff1673ffffffffffffffffffffffffffffffffffffffff168152602001908152602001600020600801600160008e73ffffffffffffffffffffffffffffffffffffffff1673ffffffffffffffffffffffffffffffffffffffff168152602001908152602001600020600a0160009054906101000a900460ff16600160008f73ffffffffffffffffffffffffffffffffffffffff1673ffffffffffffffffffffffffffffffffffffffff1681526020019081526020016000206009018680546108fb90613431565b80601f016020809104026020016040519081016040528092919081815260200182805461092790613431565b80156109745780601f1061094957610100808354040283529160200191610974565b820191906000526020600020905b81548152906001019060200180831161095757829003601f168201915b5050505050965085805461098790613431565b80601f01602080910402602001604051908101604052809291908181526020018280546109b390613431565b8015610a005780601f106109d557610100808354040283529160200191610a00565b820191906000526020600020905b8154815290600101906020018083116109e357829003601f168201915b50505050509550848054610a1390613431565b80601f0160208091040260200160405190810160405280929190818152602001828054610a3f90613431565b8015610a8c5780601f10610a6157610100808354040283529160200191610a8c565b820191906000526020600020905b815481529060010190602001808311610a6f57829003601f168201915b5050505050945083805480602002602001604051908101604052809291908181526020016000905b82821015610b60578382906000526020600020018054610ad390613431565b80601f0160208091040260200160405190810160405280929190818152602001828054610aff90613431565b8015610b4c5780601f10610b2157610100808354040283529160200191610b4c565b820191906000526020600020905b815481529060010190602001808311610b2f57829003601f168201915b505050505081526020019060010190610ab4565b505050509350828054610b7290613431565b80601f0160208091040260200160405190810160405280929190818152602001828054610b9e90613431565b8015610beb5780601f10610bc057610100808354040283529160200191610beb565b820191906000526020600020905b815481529060010190602001808311610bce57829003601f168201915b5050505050925080805480602002602001604051908101604052809291908181526020016000905b82821015610cbf578382906000526020600020018054610c3290613431565b80601f0160208091040260200160405190810160405280929190818152602001828054610c5e90613431565b8015610cab5780601f10610c8057610100808354040283529160200191610cab565b820191906000526020600020905b815481529060010190602001808311610c8e57829003601f168201915b505050505081526020019060010190610c13565b5050505090509650965096509650965096509650919395979092949650565b6000600160003373ffffffffffffffffffffffffffffffffffffffff1673ffffffffffffffffffffffffffffffffffffffff1681526020019081526020016000206000018054610d2d90613431565b905011610d6f576040517f08c379a0000000000000000000000000000000000000000000000000000000008152600401610d66906134ae565b60405180910390fd5b806000815111610db4576040517f08c379a0000000000000000000000000000000000000000000000000000000008152600401610dab906135f2565b60405180910390fd5b7f200000000000000000000000000000000000000000000000000000000000000081600081518110610de957610de8613612565b5b602001015160f81c60f81b7effffffffffffffffffffffffffffffffffffffffffffffffffffffffffffff191603610e56576040517f08c379a0000000000000000000000000000000000000000000000000000000008152600401610e4d9061368d565b60405180910390fd5b600160003373ffffffffffffffffffffffffffffffffffffffff1673ffffffffffffffffffffffffffffffffffffffff16815260200190815260200160002060030160009054906101000a900460ff16610ee5576040517f08c379a0000000000000000000000000000000000000000000000000000000008152600401610edc906136f9565b60405180910390fd5b600160003373ffffffffffffffffffffffffffffffffffffffff1673ffffffffffffffffffffffffffffffffffffffff168152602001908152602001600020600201544210610f69576040517f08c379a0000000000000000000000000000000000000000000000000000000008152600401610f6090613765565b60405180910390fd5b81600160003373ffffffffffffffffffffffffffffffffffffffff1673ffffffffffffffffffffffffffffffffffffffff1681526020019081526020016000206000019081610fb89190613931565b50610ff8336040518060400160405280600681526020017f7570646174650000000000000000000000000000000000000000000000000000815250612a4f565b3373ffffffffffffffffffffffffffffffffffffffff167fa0016473004b22caf3cbe32658844f4dfe20b54f72612d0ea625cc07ca3a192b8360405161103e9190613346565b60405180910390a25050565b60606000808373ffffffffffffffffffffffffffffffffffffffff1673ffffffffffffffffffffffffffffffffffffffff168152602001908152602001600020805480602002602001604051908101604052809291908181526020016000905b8282101561120a57838290600052602060002090600302016040518060600160405290816000820180546110dd90613431565b80601f016020809104026020016040519081016040528092919081815260200182805461110990613431565b80156111565780601f1061112b57610100808354040283529160200191611156565b820191906000526020600020905b81548152906001019060200180831161113957829003601f168201915b505050505081526020016001820154815260200160028201805461117990613431565b80601f01602080910402602001604051908101604052809291908181526020018280546111a590613431565b80156111f25780601f106111c7576101008083540402835291602001916111f2565b820191906000526020600020905b8154815290600101906020018083116111d557829003601f168201915b505050505081525050815260200190600101906110aa565b505050509050919050565b6000600160003373ffffffffffffffffffffffffffffffffffffffff1673ffffffffffffffffffffffffffffffffffffffff168152602001908152602001600020600001805461126490613431565b9050116112a6576040517f08c379a000000000000000000000000000000000000000000000000000000000815260040161129d906134ae565b60405180910390fd5b600160003373ffffffffffffffffffffffffffffffffffffffff1673ffffffffffffffffffffffffffffffffffffffff16815260200190815260200160002060040160008273ffffffffffffffffffffffffffffffffffffffff1673ffffffffffffffffffffffffffffffffffffffff16815260200190815260200160002060009054906101000a900460ff16611372576040517f08c379a000000000000000000000000000000000000000000000000000000000815260040161136990613a4f565b60405180910390fd5b6000600160003373ffffffffffffffffffffffffffffffffffffffff1673ffffffffffffffffffffffffffffffffffffffff16815260200190815260200160002060040160008373ffffffffffffffffffffffffffffffffffffffff1673ffffffffffffffffffffffffffffffffffffffff16815260200190815260200160002060006101000a81548160ff0219169083151502179055508073ffffffffffffffffffffffffffffffffffffffff163373ffffffffffffffffffffffffffffffffffffffff167f0e825a59416afd8d7bf78d7a7643a7cf4609096abf78c25584be620818c42e2f60405160405180910390a350565b6000600160003373ffffffffffffffffffffffffffffffffffffffff1673ffffffffffffffffffffffffffffffffffffffff16815260200190815260200160002060000180546114b690613431565b9050146114f8576040517f08c379a00000000000000000000000000000000000000000000000000000000081526004016114ef90613abb565b60405180910390fd5b80600081511161153d576040517f08c379a0000000000000000000000000000000000000000000000000000000008152600401611534906135f2565b60405180910390fd5b7f20000000000000000000000000000000000000000000000000000000000000008160008151811061157257611571613612565b5b602001015160f81c60f81b7effffffffffffffffffffffffffffffffffffffffffffffffffffffffffffff1916036115df576040517f08c379a00000000000000000000000000000000000000000000000000000000081526004016115d69061368d565b60405180910390fd5b6000600160003373ffffffffffffffffffffffffffffffffffffffff1673ffffffffffffffffffffffffffffffffffffffff1681526020019081526020016000209050828160000190816116339190613931565b504281600101819055506201518061016d61164e9190613b0a565b426116599190613b4c565b816002018190555060018160030160006101000a81548160ff0219169083151502179055506116bd336040518060400160405280600881526020017f7265676973746572000000000000000000000000000000000000000000000000815250612a4f565b3373ffffffffffffffffffffffffffffffffffffffff167fbfab59a7af78dfc896c3096604749fcee2db2e850297de42de5e6369f54bd3fb846040516117039190613346565b60405180910390a2505050565b6000600160008473ffffffffffffffffffffffffffffffffffffffff1673ffffffffffffffffffffffffffffffffffffffff16815260200190815260200160002060040160008373ffffffffffffffffffffffffffffffffffffffff1673ffffffffffffffffffffffffffffffffffffffff16815260200190815260200160002060009054906101000a900460ff16905092915050565b600060205281600052604060002081815481106117c357600080fd5b9060005260206000209060030201600091509150508060000180546117e790613431565b80601f016020809104026020016040519081016040528092919081815260200182805461181390613431565b80156118605780601f1061183557610100808354040283529160200191611860565b820191906000526020600020905b81548152906001019060200180831161184357829003601f168201915b50505050509080600101549080600201805461187b90613431565b80601f01602080910402602001604051908101604052809291908181526020018280546118a790613431565b80156118f45780601f106118c9576101008083540402835291602001916118f4565b820191906000526020600020905b8154815290600101906020018083116118d757829003601f168201915b5050505050905083565b6000600160003373ffffffffffffffffffffffffffffffffffffffff1673ffffffffffffffffffffffffffffffffffffffff168152602001908152602001600020600001805461194d90613431565b90501161198f576040517f08c379a0000000000000000000000000000000000000000000000000000000008152600401611986906134ae565b60405180910390fd5b6000600160003373ffffffffffffffffffffffffffffffffffffffff1673ffffffffffffffffffffffffffffffffffffffff16815260200190815260200160002060030160006101000a81548160ff021916908315150217905550611a29336040518060400160405280600681526020017f7265766f6b650000000000000000000000000000000000000000000000000000815250612a4f565b3373ffffffffffffffffffffffffffffffffffffffff167fa0ff60c04be63f3cf32a661849abeec287a06df9820b4d6ba7d49853d3de3c5260405160405180910390a2565b600160008273ffffffffffffffffffffffffffffffffffffffff1673ffffffffffffffffffffffffffffffffffffffff16815260200190815260200160002060030160009054906101000a900460ff168015611b0c5750600160008273ffffffffffffffffffffffffffffffffffffffff1673ffffffffffffffffffffffffffffffffffffffff168152602001908152602001600020600201544210155b15611bef576000600160008373ffffffffffffffffffffffffffffffffffffffff1673ffffffffffffffffffffffffffffffffffffffff16815260200190815260200160002060030160006101000a81548160ff021916908315150217905550611bab816040518060400160405280600681526020017f6578706972650000000000000000000000000000000000000000000000000000815250612a4f565b8073ffffffffffffffffffffffffffffffffffffffff167f604be1f2afa5b5b3f0af396606ec0f634ca478af011995b0940c739e311447f060405160405180910390a25b50565b600080600160008473ffffffffffffffffffffffffffffffffffffffff1673ffffffffffffffffffffffffffffffffffffffff1681526020019081526020016000206000018054611c4290613431565b9050119050919050565b6000600160003373ffffffffffffffffffffffffffffffffffffffff1673ffffffffffffffffffffffffffffffffffffffff1681526020019081526020016000206000018054611c9b90613431565b905011611cdd576040517f08c379a0000000000000000000000000000000000000000000000000000000008152600401611cd4906134ae565b60405180910390fd5b600160003373ffffffffffffffffffffffffffffffffffffffff1673ffffffffffffffffffffffffffffffffffffffff16815260200190815260200160002060030160009054906101000a900460ff16611d6c576040517f08c379a0000000000000000000000000000000000000000000000000000000008152600401611d6390613bcc565b60405180910390fd5b81600160003373ffffffffffffffffffffffffffffffffffffffff1673ffffffffffffffffffffffffffffffffffffffff1681526020019081526020016000206005019081611dbb9190613931565b5080600160003373ffffffffffffffffffffffffffffffffffffffff1673ffffffffffffffffffffffffffffffffffffffff1681526020019081526020016000206006019081611e0b9190613931565b503373ffffffffffffffffffffffffffffffffffffffff167fe68cb7564b58765ee61b595d87c1f8ccef6e873008ad3e5c63cd7b6f610384b38383600160003373ffffffffffffffffffffffffffffffffffffffff1673ffffffffffffffffffffffffffffffffffffffff168152602001908152602001600020600801604051611e9793929190613c70565b60405180910390a25050565b6000600160003373ffffffffffffffffffffffffffffffffffffffff1673ffffffffffffffffffffffffffffffffffffffff1681526020019081526020016000206000018054611ef290613431565b905011611f34576040517f08c379a0000000000000000000000000000000000000000000000000000000008152600401611f2b906134ae565b60405180910390fd5b6000815111611f78576040517f08c379a0000000000000000000000000000000000000000000000000000000008152600401611f6f90613d08565b60405180910390fd5b600160003373ffffffffffffffffffffffffffffffffffffffff1673ffffffffffffffffffffffffffffffffffffffff16815260200190815260200160002060090181908060018154018082558091505060019003906000526020600020016000909190919091509081611fec9190613931565b503373ffffffffffffffffffffffffffffffffffffffff167fe75132028b1832847c4435ba02f73cd53bf8386f0651d72e21e4ebc40bcbde1a826040516120339190613346565b60405180910390a250565b61016d81565b6000600160003373ffffffffffffffffffffffffffffffffffffffff1673ffffffffffffffffffffffffffffffffffffffff168152602001908152602001600020600001805461209390613431565b9050116120d5576040517f08c379a00000000000000000000000000000000000000000000000000000000081526004016120cc906134ae565b60405180910390fd5b600160003373ffffffffffffffffffffffffffffffffffffffff1673ffffffffffffffffffffffffffffffffffffffff16815260200190815260200160002060030160009054906101000a900460ff16612164576040517f08c379a000000000000000000000000000000000000000000000000000000000815260040161215b90613bcc565b60405180910390fd5b600160003373ffffffffffffffffffffffffffffffffffffffff1673ffffffffffffffffffffffffffffffffffffffff168152602001908152602001600020600701819080600181540180825580915050600190039060005260206000200160009091909190915090816121d89190613931565b503373ffffffffffffffffffffffffffffffffffffffff167fd63243eb136351478e4ecc1f6480e54bf8fe9c118f60e8a736b78e44ee87fd1c8260405161221f9190613346565b60405180910390a250565b6000600160003373ffffffffffffffffffffffffffffffffffffffff1673ffffffffffffffffffffffffffffffffffffffff168152602001908152602001600020600001805461227990613431565b9050116122bb576040517f08c379a00000000000000000000000000000000000000000000000000000000081526004016122b2906134ae565b60405180910390fd5b6000600160003373ffffffffffffffffffffffffffffffffffffffff1673ffffffffffffffffffffffffffffffffffffffff168152602001908152602001600020600801805461230a90613431565b90501161234c576040517f08c379a000000000000000000000000000000000000000000000000000000000815260040161234390613d74565b60405180910390fd5b60018060003373ffffffffffffffffffffffffffffffffffffffff1673ffffffffffffffffffffffffffffffffffffffff168152602001908152602001600020600a0160006101000a81548160ff0219169083151502179055503373ffffffffffffffffffffffffffffffffffffffff167f10e0985f045ac7e5a39a480e0a0c7718a143cc8e858d7f900b8ccb9540d7370e60405160405180910390a2565b6000600160003373ffffffffffffffffffffffffffffffffffffffff1673ffffffffffffffffffffffffffffffffffffffff168152602001908152602001600020600001805461243a90613431565b90501161247c576040517f08c379a0000000000000000000000000000000000000000000000000000000008152600401612473906134ae565b60405180910390fd5b60008151116124c0576040517f08c379a00000000000000000000000000000000000000000000000000000000081526004016124b790613de0565b60405180910390fd5b80600160003373ffffffffffffffffffffffffffffffffffffffff1673ffffffffffffffffffffffffffffffffffffffff168152602001908152602001600020600801908161250f9190613931565b506000600160003373ffffffffffffffffffffffffffffffffffffffff1673ffffffffffffffffffffffffffffffffffffffff168152602001908152602001600020600a0160006101000a81548160ff0219169083151502179055503373ffffffffffffffffffffffffffffffffffffffff167fe68cb7564b58765ee61b595d87c1f8ccef6e873008ad3e5c63cd7b6f610384b3600160003373ffffffffffffffffffffffffffffffffffffffff1673ffffffffffffffffffffffffffffffffffffffff168152602001908152602001600020600501600160003373ffffffffffffffffffffffffffffffffffffffff1673ffffffffffffffffffffffffffffffffffffffff1681526020019081526020016000206006018460405161263793929190613e00565b60405180910390a250565b6060600160008373ffffffffffffffffffffffffffffffffffffffff1673ffffffffffffffffffffffffffffffffffffffff16815260200190815260200160002060030160009054906101000a900460ff1680156126e15750600160008373ffffffffffffffffffffffffffffffffffffffff1673ffffffffffffffffffffffffffffffffffffffff1681526020019081526020016000206002015442105b6126fa57604051806020016040528060008152506127c6565b600160008373ffffffffffffffffffffffffffffffffffffffff1673ffffffffffffffffffffffffffffffffffffffff168152602001908152602001600020600001805461274790613431565b80601f016020809104026020016040519081016040528092919081815260200182805461277390613431565b80156127c05780601f10612795576101008083540402835291602001916127c0565b820191906000526020600020905b8154815290600101906020018083116127a357829003601f168201915b50505050505b9050919050565b60016020528060005260406000206000915090508060000180546127f090613431565b80601f016020809104026020016040519081016040528092919081815260200182805461281c90613431565b80156128695780601f1061283e57610100808354040283529160200191612869565b820191906000526020600020905b81548152906001019060200180831161284c57829003601f168201915b5050505050908060010154908060020154908060030160009054906101000a900460ff169080600501805461289d90613431565b80601f01602080910402602001604051908101604052809291908181526020018280546128c990613431565b80156129165780601f106128eb57610100808354040283529160200191612916565b820191906000526020600020905b8154815290600101906020018083116128f957829003601f168201915b50505050509080600601805461292b90613431565b80601f016020809104026020016040519081016040528092919081815260200182805461295790613431565b80156129a45780601f10612979576101008083540402835291602001916129a4565b820191906000526020600020905b81548152906001019060200180831161298757829003601f168201915b5050505050908060080180546129b990613431565b80601f01602080910402602001604051908101604052809291908181526020018280546129e590613431565b8015612a325780601f10612a0757610100808354040283529160200191612a32565b820191906000526020600020905b815481529060010190602001808311612a1557829003601f168201915b50505050509080600a0160009054906101000a900460ff16905088565b6000808373ffffffffffffffffffffffffffffffffffffffff1673ffffffffffffffffffffffffffffffffffffffff1681526020019081526020016000206040518060600160405280600160008673ffffffffffffffffffffffffffffffffffffffff1673ffffffffffffffffffffffffffffffffffffffff1681526020019081526020016000206000018054612ae590613431565b80601f0160208091040260200160405190810160405280929190818152602001828054612b1190613431565b8015612b5e5780601f10612b3357610100808354040283529160200191612b5e565b820191906000526020600020905b815481529060010190602001808311612b4157829003601f168201915b505050505081526020014281526020018381525090806001815401808255809150506001900390600052602060002090600302016000909190919091506000820151816000019081612bb09190613931565b50602082015181600101556040820151816002019081612bd09190613931565b5050505050565b6000604051905090565b600080fd5b600080fd5b600073ffffffffffffffffffffffffffffffffffffffff82169050919050565b6000612c1682612beb565b9050919050565b612c2681612c0b565b8114612c3157600080fd5b50565b600081359050612c4381612c1d565b92915050565b600060208284031215612c5f57612c5e612be1565b5b6000612c6d84828501612c34565b91505092915050565b600081519050919050565b600082825260208201905092915050565b60005b83811015612cb0578082015181840152602081019050612c95565b60008484015250505050565b6000601f19601f8301169050919050565b6000612cd882612c76565b612ce28185612c81565b9350612cf2818560208601612c92565b612cfb81612cbc565b840191505092915050565b600081519050919050565b600082825260208201905092915050565b6000819050602082019050919050565b600082825260208201905092915050565b6000612d4e82612c76565b612d588185612d32565b9350612d68818560208601612c92565b612d7181612cbc565b840191505092915050565b6000612d888383612d43565b905092915050565b6000602082019050919050565b6000612da882612d06565b612db28185612d11565b935083602082028501612dc485612d22565b8060005b85811015612e005784840389528151612de18582612d7c565b9450612dec83612d90565b925060208a01995050600181019050612dc8565b50829750879550505050505092915050565b60008115159050919050565b612e2781612e12565b82525050565b600060e0820190508181036000830152612e47818a612ccd565b90508181036020830152612e5b8189612ccd565b90508181036040830152612e6f8188612ccd565b90508181036060830152612e838187612d9d565b90508181036080830152612e978186612ccd565b9050612ea660a0830185612e1e565b81810360c0830152612eb88184612d9d565b905098975050505050505050565b600080fd5b600080fd5b7f4e487b7100000000000000000000000000000000000000000000000000000000600052604160045260246000fd5b612f0882612cbc565b810181811067ffffffffffffffff82111715612f2757612f26612ed0565b5b80604052505050565b6000612f3a612bd7565b9050612f468282612eff565b919050565b600067ffffffffffffffff821115612f6657612f65612ed0565b5b612f6f82612cbc565b9050602081019050919050565b82818337600083830152505050565b6000612f9e612f9984612f4b565b612f30565b905082815260208101848484011115612fba57612fb9612ecb565b5b612fc5848285612f7c565b509392505050565b600082601f830112612fe257612fe1612ec6565b5b8135612ff2848260208601612f8b565b91505092915050565b60006020828403121561301157613010612be1565b5b600082013567ffffffffffffffff81111561302f5761302e612be6565b5b61303b84828501612fcd565b91505092915050565b600081519050919050565b600082825260208201905092915050565b6000819050602082019050919050565b6000819050919050565b61308381613070565b82525050565b600060608301600083015184820360008601526130a68282612d43565b91505060208301516130bb602086018261307a565b50604083015184820360408601526130d38282612d43565b9150508091505092915050565b60006130ec8383613089565b905092915050565b6000602082019050919050565b600061310c82613044565b613116818561304f565b93508360208202850161312885613060565b8060005b85811015613164578484038952815161314585826130e0565b9450613150836130f4565b925060208a0199505060018101905061312c565b50829750879550505050505092915050565b600060208201905081810360008301526131908184613101565b905092915050565b600080604083850312156131af576131ae612be1565b5b60006131bd85828601612c34565b92505060206131ce85828601612c34565b9150509250929050565b60006020820190506131ed6000830184612e1e565b92915050565b6131fc81613070565b811461320757600080fd5b50565b600081359050613219816131f3565b92915050565b6000806040838503121561323657613235612be1565b5b600061324485828601612c34565b92505060206132558582860161320a565b9150509250929050565b61326881613070565b82525050565b600060608201905081810360008301526132888186612ccd565b9050613297602083018561325f565b81810360408301526132a98184612ccd565b9050949350505050565b600080604083850312156132ca576132c9612be1565b5b600083013567ffffffffffffffff8111156132e8576132e7612be6565b5b6132f485828601612fcd565b925050602083013567ffffffffffffffff81111561331557613314612be6565b5b61332185828601612fcd565b9150509250929050565b6000602082019050613340600083018461325f565b92915050565b600060208201905081810360008301526133608184612ccd565b905092915050565b6000610100820190508181036000830152613383818b612ccd565b9050613392602083018a61325f565b61339f604083018961325f565b6133ac6060830188612e1e565b81810360808301526133be8187612ccd565b905081810360a08301526133d28186612ccd565b905081810360c08301526133e68185612ccd565b90506133f560e0830184612e1e565b9998505050505050505050565b7f4e487b7100000000000000000000000000000000000000000000000000000000600052602260045260246000fd5b6000600282049050600182168061344957607f821691505b60208210810361345c5761345b613402565b5b50919050565b7f55736572206e6f74207265676973746572656400000000000000000000000000600082015250565b6000613498601383612c81565b91506134a382613462565b602082019050919050565b600060208201905081810360008301526134c78161348b565b9050919050565b7f4164647265737320616c726561647920617574686f72697a6564000000000000600082015250565b6000613504601a83612c81565b915061350f826134ce565b602082019050919050565b60006020820190508181036000830152613533816134f7565b9050919050565b7f4e6f7420617574686f72697a656420746f20766965772070726f66696c650000600082015250565b6000613570601e83612c81565b915061357b8261353a565b602082019050919050565b6000602082019050818103600083015261359f81613563565b9050919050565b7f4449442063616e6e6f7420626520656d70747900000000000000000000000000600082015250565b60006135dc601383612c81565b91506135e7826135a6565b602082019050919050565b6000602082019050818103600083015261360b816135cf565b9050919050565b7f4e487b7100000000000000000000000000000000000000000000000000000000600052603260045260246000fd5b7f4449442063616e6e6f7420737461727420776974682073706163650000000000600082015250565b6000613677601b83612c81565b915061368282613641565b602082019050919050565b600060208201905081810360008301526136a68161366a565b9050919050565b7f444944206973207265766f6b6564000000000000000000000000000000000000600082015250565b60006136e3600e83612c81565b91506136ee826136ad565b602082019050919050565b60006020820190508181036000830152613712816136d6565b9050919050565b7f4449442069732065787069726564000000000000000000000000000000000000600082015250565b600061374f600e83612c81565b915061375a82613719565b602082019050919050565b6000602082019050818103600083015261377e81613742565b9050919050565b60008190508160005260206000209050919050565b60006020601f8301049050919050565b600082821b905092915050565b6000600883026137e77fffffffffffffffffffffffffffffffffffffffffffffffffffffffffffffffff826137aa565b6137f186836137aa565b95508019841693508086168417925050509392505050565b6000819050919050565b600061382e61382961382484613070565b613809565b613070565b9050919050565b6000819050919050565b61384883613813565b61385c61385482613835565b8484546137b7565b825550505050565b600090565b613871613864565b61387c81848461383f565b505050565b5b818110156138a057613895600082613869565b600181019050613882565b5050565b601f8211156138e5576138b681613785565b6138bf8461379a565b810160208510156138ce578190505b6138e26138da8561379a565b830182613881565b50505b505050565b600082821c905092915050565b6000613908600019846008026138ea565b1980831691505092915050565b600061392183836138f7565b9150826002028217905092915050565b61393a82612c76565b67ffffffffffffffff81111561395357613952612ed0565b5b61395d8254613431565b6139688282856138a4565b600060209050601f83116001811461399b5760008415613989578287015190505b6139938582613915565b8655506139fb565b601f1984166139a986613785565b60005b828110156139d1578489015182556001820191506020850194506020810190506139ac565b868310156139ee57848901516139ea601f8916826138f7565b8355505b6001600288020188555050505b505050505050565b7f41646472657373206e6f7420617574686f72697a656400000000000000000000600082015250565b6000613a39601683612c81565b9150613a4482613a03565b602082019050919050565b60006020820190508181036000830152613a6881613a2c565b9050919050565b7f5573657220616c72656164792072656769737465726564204449440000000000600082015250565b6000613aa5601b83612c81565b9150613ab082613a6f565b602082019050919050565b60006020820190508181036000830152613ad481613a98565b9050919050565b7f4e487b7100000000000000000000000000000000000000000000000000000000600052601160045260246000fd5b6000613b1582613070565b9150613b2083613070565b9250828202613b2e81613070565b91508282048414831517613b4557613b44613adb565b5b5092915050565b6000613b5782613070565b9150613b6283613070565b9250828201905080821115613b7a57613b79613adb565b5b92915050565b7f444944206973206e6f7420616374697665000000000000000000000000000000600082015250565b6000613bb6601183612c81565b9150613bc182613b80565b602082019050919050565b60006020820190508181036000830152613be581613ba9565b9050919050565b60008154613bf981613431565b613c038186612c81565b94506001821660008114613c1e5760018114613c3457613c67565b60ff198316865281151560200286019350613c67565b613c3d85613785565b60005b83811015613c5f57815481890152600182019150602081019050613c40565b808801955050505b50505092915050565b60006060820190508181036000830152613c8a8186612ccd565b90508181036020830152613c9e8185612ccd565b90508181036040830152613cb28184613bec565b9050949350505050565b7f536f6369616c206163636f756e742063616e6e6f7420626520656d7074790000600082015250565b6000613cf2601e83612c81565b9150613cfd82613cbc565b602082019050919050565b60006020820190508181036000830152613d2181613ce5565b9050919050565b7f4e6f20656d61696c20746f207665726966790000000000000000000000000000600082015250565b6000613d5e601283612c81565b9150613d6982613d28565b602082019050919050565b60006020820190508181036000830152613d8d81613d51565b9050919050565b7f456d61696c2063616e6e6f7420626520656d7074790000000000000000000000600082015250565b6000613dca601583612c81565b9150613dd582613d94565b602082019050919050565b60006020820190508181036000830152613df981613dbd565b9050919050565b60006060820190508181036000830152613e1a8186613bec565b90508181036020830152613e2e8185613bec565b90508181036040830152613e428184612ccd565b905094935050505056fea2646970667358221220e6612c706edae546ddb033bf4dbf8285248b9c8f260549289f3218ecc71bef7764736f6c63430008130033",
  "linkReferences": {},
  "deployedLinkReferences": {}
}