{
  "_format": "hh-sol-artifact-1",
  "contractName": "DIDRegistry",
  "sourceName": "contracts/DIDRegistry.sol",
  "abi": [
    {
      "anonymous": false,
      "inputs": [
        {
          "indexed": false,
          "internalType": "string",
          "name": "did",
          "type": "string"
        }
      ],
      "name": "DIDDeactivated",
      "type": "event"
    },
    {
      "anonymous": false,
      "inputs": [
        {
          "indexed": false,
          "internalType": "string",
          "name": "did",
          "type": "string"
        },
        {
          "indexed": false,
          "internalType": "string",
          "name": "document",
          "type": "string"
        }
      ],
      "name": "DIDRegistered",
      "type": "event"
    },
    {
      "anonymous": false,
      "inputs": [
        {
          "indexed": false,
          "internalType": "string",
          "name": "did",
          "type": "string"
        },
        {
          "indexed": false,
          "internalType": "string",
          "name": "document",
          "type": "string"
        }
      ],
      "name": "DIDUpdated",
      "type": "event"
    },
    {
      "inputs": [
        {
          "internalType": "string",
          "name": "did",
          "type": "string"
        }
      ],
      "name": "deactivate",
      "outputs": [],
      "stateMutability": "nonpayable",
      "type": "function"
    },
    {
      "inputs": [
        {
          "internalType": "string",
          "name": "did",
          "type": "string"
        }
      ],
      "name": "getDocument",
      "outputs": [
        {
          "internalType": "string",
          "name": "",
          "type": "string"
        }
      ],
      "stateMutability": "view",
      "type": "function"
    },
    {
      "inputs": [
        {
          "internalType": "string",
          "name": "did",
          "type": "string"
        }
      ],
      "name": "getStatus",
      "outputs": [
        {
          "internalType": "bool",
          "name": "",
          "type": "bool"
        }
      ],
      "stateMutability": "view",
      "type": "function"
    },
    {
      "inputs": [
        {
          "internalType": "string",
          "name": "did",
          "type": "string"
        },
        {
          "internalType": "string",
          "name": "document",
          "type": "string"
        }
      ],
      "name": "register",
      "outputs": [],
      "stateMutability": "nonpayable",
      "type": "function"
    },
    {
      "inputs": [
        {
          "internalType": "string",
          "name": "did",
          "type": "string"
        },
        {
          "internalType": "string",
          "name": "document",
          "type": "string"
        }
      ],
      "name": "update",
      "outputs": [],
      "stateMutability": "nonpayable",
      "type": "function"
    }
  ],
  "bytecode": "0x608060405234801561001057600080fd5b50610cf8806100206000396000f3fe608060405234801561001057600080fd5b50600436106100575760003560e01c806322b05ed21461005c57806327ee999d1461008c5780633ffbd47f146100a85780637ccb6a64146100c4578063f4c84d19146100f4575b600080fd5b61007660048036038101906100719190610674565b610110565b60405161008391906106d8565b60405180910390f35b6100a660048036038101906100a19190610674565b610144565b005b6100c260048036038101906100bd91906106f3565b61021f565b005b6100de60048036038101906100d99190610674565b61032b565b6040516100eb91906107ea565b60405180910390f35b61010e600480360381019061010991906106f3565b610446565b005b600080826040516101219190610848565b908152602001604051809103902060009054906101000a900460ff169050919050565b6000816040516101549190610848565b908152602001604051809103902060009054906101000a900460ff166101af576040517f08c379a00000000000000000000000000000000000000000000000000000000081526004016101a6906108ab565b60405180910390fd5b600080826040516101c09190610848565b908152602001604051809103902060006101000a81548160ff0219169083151502179055507f4360f12f602ccecefb32480e5314d0d3f57d38db8f52c76d8fdf4c39596c1c288160405161021491906107ea565b60405180910390a150565b60008260405161022f9190610848565b908152602001604051809103902060009054906101000a900460ff161561028b576040517f08c379a000000000000000000000000000000000000000000000000000000000815260040161028290610917565b60405180910390fd5b600160008360405161029d9190610848565b908152602001604051809103902060006101000a81548160ff021916908315150217905550806001836040516102d39190610848565b908152602001604051809103902090816102ed9190610b4d565b507f3821fb4ad323658be2eee296ee06377da01cc275fe45548c9b27eca563bcdbf6828260405161031f929190610c1f565b60405180910390a15050565b606060008260405161033d9190610848565b908152602001604051809103902060009054906101000a900460ff16610398576040517f08c379a000000000000000000000000000000000000000000000000000000000815260040161038f90610ca2565b60405180910390fd5b6001826040516103a89190610848565b908152602001604051809103902080546103c190610966565b80601f01602080910402602001604051908101604052809291908181526020018280546103ed90610966565b801561043a5780601f1061040f5761010080835404028352916020019161043a565b820191906000526020600020905b81548152906001019060200180831161041d57829003601f168201915b50505050509050919050565b6000826040516104569190610848565b908152602001604051809103902060009054906101000a900460ff166104b1576040517f08c379a00000000000000000000000000000000000000000000000000000000081526004016104a8906108ab565b60405180910390fd5b806001836040516104c29190610848565b908152602001604051809103902090816104dc9190610b4d565b507fef928790e3ba239e686d4c1e6e85a60d67ddf17a606292c714ca966a2720f268828260405161050e929190610c1f565b60405180910390a15050565b6000604051905090565b600080fd5b600080fd5b600080fd5b600080fd5b6000601f19601f8301169050919050565b7f4e487b7100000000000000000000000000000000000000000000000000000000600052604160045260246000fd5b61058182610538565b810181811067ffffffffffffffff821117156105a05761059f610549565b5b80604052505050565b60006105b361051a565b90506105bf8282610578565b919050565b600067ffffffffffffffff8211156105df576105de610549565b5b6105e882610538565b9050602081019050919050565b82818337600083830152505050565b6000610617610612846105c4565b6105a9565b90508281526020810184848401111561063357610632610533565b5b61063e8482856105f5565b509392505050565b600082601f83011261065b5761065a61052e565b5b813561066b848260208601610604565b91505092915050565b60006020828403121561068a57610689610524565b5b600082013567ffffffffffffffff8111156106a8576106a7610529565b5b6106b484828501610646565b91505092915050565b60008115159050919050565b6106d2816106bd565b82525050565b60006020820190506106ed60008301846106c9565b92915050565b6000806040838503121561070a57610709610524565b5b600083013567ffffffffffffffff81111561072857610727610529565b5b61073485828601610646565b925050602083013567ffffffffffffffff81111561075557610754610529565b5b61076185828601610646565b9150509250929050565b600081519050919050565b600082825260208201905092915050565b60005b838110156107a557808201518184015260208101905061078a565b60008484015250505050565b60006107bc8261076b565b6107c68185610776565b93506107d6818560208601610787565b6107df81610538565b840191505092915050565b6000602082019050818103600083015261080481846107b1565b905092915050565b600081905092915050565b60006108228261076b565b61082c818561080c565b935061083c818560208601610787565b80840191505092915050565b60006108548284610817565b915081905092915050565b7f444944206e6f7420666f756e6400000000000000000000000000000000000000600082015250565b6000610895600d83610776565b91506108a08261085f565b602082019050919050565b600060208201905081810360008301526108c481610888565b9050919050565b7f44494420616c7265616479206578697374730000000000000000000000000000600082015250565b6000610901601283610776565b915061090c826108cb565b602082019050919050565b60006020820190508181036000830152610930816108f4565b9050919050565b7f4e487b7100000000000000000000000000000000000000000000000000000000600052602260045260246000fd5b6000600282049050600182168061097e57607f821691505b60208210810361099157610990610937565b5b50919050565b60008190508160005260206000209050919050565b60006020601f8301049050919050565b600082821b905092915050565b6000600883026109f97fffffffffffffffffffffffffffffffffffffffffffffffffffffffffffffffff826109bc565b610a0386836109bc565b95508019841693508086168417925050509392505050565b6000819050919050565b6000819050919050565b6000610a4a610a45610a4084610a1b565b610a25565b610a1b565b9050919050565b6000819050919050565b610a6483610a2f565b610a78610a7082610a51565b8484546109c9565b825550505050565b600090565b610a8d610a80565b610a98818484610a5b565b505050565b5b81811015610abc57610ab1600082610a85565b600181019050610a9e565b5050565b601f821115610b0157610ad281610997565b610adb846109ac565b81016020851015610aea578190505b610afe610af6856109ac565b830182610a9d565b50505b505050565b600082821c905092915050565b6000610b2460001984600802610b06565b1980831691505092915050565b6000610b3d8383610b13565b9150826002028217905092915050565b610b568261076b565b67ffffffffffffffff811115610b6f57610b6e610549565b5b610b798254610966565b610b84828285610ac0565b600060209050601f831160018114610bb75760008415610ba5578287015190505b610baf8582610b31565b865550610c17565b601f198416610bc586610997565b60005b82811015610bed57848901518255600182019150602085019450602081019050610bc8565b86831015610c0a5784890151610c06601f891682610b13565b8355505b6001600288020188555050505b505050505050565b60006040820190508181036000830152610c3981856107b1565b90508181036020830152610c4d81846107b1565b90509392505050565b7f444944206e6f7420666f756e64206f7220646561637469766174656400000000600082015250565b6000610c8c601c83610776565b9150610c9782610c56565b602082019050919050565b60006020820190508181036000830152610cbb81610c7f565b905091905056fea264697066735822122031340c7359e8086f8cd13639ea0950124d4ffd85da3448f79f16084a811625fa64736f6c63430008130033",
  "linkReferences": {},
  "deployedLinkReferences": {}
}